:020000040800F2
:10000000F80500209D0100089731000859300008CC
:1000100095310008B1080008313A000800000000DE
:10002000000000000000000000000000DD340008B7
:10003000F309000800000000B9310008DF340008AF
:10004000B7010008B7010008B7010008B7010008B0
:10005000B7010008B7010008F5090008FB0900080E
:10006000010A0008070A0008B7010008B7010008E4
:10007000B7010008B7010008B7010008B701000880
:10008000B7010008B701000829040008B7010008FB
:10009000B7010008B7010008B70100080D0A000801
:1000A000B7010008B7010008B7010008B701000850
:1000B000B7010008B535000809360008B701000887
:1000C000B7010008B7010008B7010008B701000830
:1000D000B7010008B7010008B7010008B701000820
:1000E000B7010008B7010008B7010008B701000810
:1000F000B7010008B7010008B7010008B701000800
:10010000B7010008B7010008B7010008B7010008EF
:10011000B7010008B7010008B7010008B7010008DF
:10012000B7010008B7010008BD090008B7010008C1
:10013000B7010008B7010008B7010008B7010008BF
:10014000B7010008B7010008B7010008B7010008AF
:10015000B7010008B7010008B7010008B70100089F
:10016000B7010008B7010008B7010008B70100088F
:10017000B7010008B7010008B7010008000000003F
:10018000B7010008B7010008DFF80CD000F01AF939
:100190000048004775400008F805002006488047E1
:1001A00006480047FEE7FEE7FEE7FEE7FEE7FEE75C
:1001B000FEE7FEE7FEE7FEE771350008890100086B
:1001C000D2B201E000F8012B491EFBD27047002299
:1001D000F6E710B513460A4604461946FFF7F0FF46
:1001E000204610BD2DE9F04D81EA030404F0004BD8
:1001F00021F0004514464FF0000A23F0004150EA78
:10020000050220D054EA01021DD0C5F30A57024668
:10021000C5F31303C1F31300C1F30A5640F480156C
:1002200043F48013A7EB0608101BD64608F2FD38EE
:1002300073EB050002D308F1010801E092185B415D
:10024000B8F1000F03DA00200146BDE8F08D002070
:100250004FF48011064684460EE0171B73EB05072A
:1002600005D3121B63EB050306434CEA010C490856
:100270004FEA300092185B4150EA0107EDD152EA93
:10028000030012D082EA040083EA0501084305D086
:10029000101BAB4106D20122002306E000224FF0E2
:1002A000004302E06FF0010253101AEB06004CEB22
:1002B000085110EB0A0041EB0B01BDE8F04D00F0D6
:1002C00023B80EB540F2334102910021CDE900116F
:1002D0000A460B4600F027F803B000BD30B50B46C8
:1002E000014600202022012409E021FA02F59D4266
:1002F00005D303FA02F5491B04FA02F52844151E3A
:10030000A2F10102F1DC30BD10B5141E73F100043E
:1003100008DA401C41F1000192185B411A4301D1F7
:1003200020F0010010BD2DE9F04D92469B4611B121
:10033000B1FA81F202E0B0FA80F22032904600F089
:1003400053F804460F4640EA0A0041EA0B015346BF
:100350005A46084313D0114653EA010019D0C8F198
:100360004002504600F04FF805460E4650465946AA
:10037000424600F039F8084305D0012004E0204649
:100380003946BDE8F08D0020054346EAE0762C436F
:1003900037430A986305E40AA0EB08000022FD0A2F
:1003A00044EA47540A3002D500200146E9E7010536
:1003B00010196941DDE9084500196941BDE8F04DB2
:1003C000A2E70000064C074D06E0E06840F001039C
:1003D00094E8070098471034AC42F6D3FFF7D8FEF4
:1003E000FC4100081C420008202A04DB203A00FAE5
:1003F00002F1002070479140C2F1200320FA03F37C
:10040000194390407047202A04DB203A21FA02F079
:100410000021704721FA02F3D040C2F1200291403E
:100420000843194670470000014800F0F5BE00007F
:100430003400002070B51B4C19482060204600F0A5
:10044000F9FD20BB00256560A5600420E560C4E9D6
:1004500004500126A561C4E907566662A662C4E994
:100460000B658002C4E90D502046E56301F02CF8CD
:1004700068B904F168000621C0E90016C0E9026508
:10048000056101464561683800F08CFB08B100F059
:10049000C0FABDE8704004220349024801F0A6B941
:1004A00000000450340000200400002070B5044611
:1004B00000680022836813F00C0F50D0C3689B01C2
:1004C00005D5E369012B02D1A369012B22D0602954
:1004D0000CD020688268520706D58268920703D440
:1004E000826842F0100282600C290ED02068826877
:1004F000120706D58268920703D4826842F0200270
:100500008260602915D06C2911D0042501F0A6FC69
:10051000064620E00C21134B02E09A4211D2521CF5
:100520000568ED436D06F8D440220260D1E70C2542
:10053000ECE70825EAE700BF01F090FC801B0528E6
:1005400009D9A06D40F01000A065E06D40F00100F9
:10055000E065012070BD206880682842ECD1002051
:1005600070BD000000340A0010B5806A816D11F082
:10057000500F816D04D0C90601D500F04BFE10BDAF
:1005800041F40071816501680A68120715D5CA68CF
:1005900012F4406F0ED1C968890400290ADB816D0D
:1005A00021F480718165816DC90403D4816D41F0AE
:1005B0000101816500F039FD10BDC9688907ECE7CC
:1005C00010B5806A816D41F040018165C16D41F0D7
:1005D0000401C16500F01EFE10BD10B5806A00F078
:1005E00027FD10BD70B504460068816801F0030165
:1005F000012926D10168C90723D0816801F00D01C6
:10060000012910D1816841F0020181602168032035
:10061000086001F023FC05460FE000BF01F01EFC5E
:10062000401B022809D9A06D40F01000A065E06DC4
:1006300040F00100E065012070BD20688068C007BF
:10064000ECD1002070BD000070B5044600688168E0
:1006500001F00301012902D10168C90723D1816892
:10066000124A114210D1816841F00101816001F00C
:10067000F5FB054612E0816841F00101816001F05F
:10068000EDFB401B022809D9A06D40F01000A065C9
:10069000E06D40F00100E065012070BD2068016858
:1006A000C943C907E7D1002070BD00003F000080AA
:1006B0002DE9F04F002487B00646254DDFF894A0C1
:1006C00003274FF00209DFF8908012E08CB1032C71
:1006D0000FD0012C0DD0022C0BD0042C09D000BF60
:1006E00038F81400CDE9029700905EB1012E11D0C8
:1006F00025E0E86C40F00100E864E86C00F00100DF
:100700000590EDE7002001905AF82400694601F0B9
:10071000B7FA14E0114801905AF82400694601F034
:10072000AFFADFF834B00022ABF1060B0F211BF952
:10073000040001F0FBFC1BF9040001F0ECFC641C5C
:10074000E4B2052CC2D307B0002000F009B80000C5
:100750000010024018000020B241000800002110E3
:1007600030BCBDE8C08F0000014801F0A5BB00000F
:10077000A801002070B50546002408E000222346A9
:100780001146284603F070F9641CE4B26D1C287809
:1007900008B1052CF2D9BDE87040014801F04BBC0E
:1007A000A8010020114810B50F49016000214FF445
:1007B0007012C0E901120C22C2604FF4A053402213
:1007C0008361C0E90421C0E9071212024162C0E955
:1007D0000A12016302F042FC044801F0ADFBBDE8DF
:1007E0001040024801F068BB00240040A80100202E
:1007F00030B50400174887B002D0012C08D00FE0B4
:10080000C16C41F00201C164C06C00F0020006E05E
:10081000C16C41F01001C164C06C00F01000059083
:100820000D480E4D694630F81400009001200190EB
:10083000002002900320039055F8240001F020FAD4
:100840000098002281B255F8240001F002FB07B0A5
:1008500030BD000000100240A84100081000002038
:100860000449054A31F8101052F82000002201F026
:10087000F0BA0000A8410008100000200449054A11
:1008800031F8101052F82000012201F0E2BA000005
:10089000A8410008100000200349044A31F8101054
:1008A00052F8200001F0D1BAA84100081000002041
:1008B000FEE7000070B5002300781C46342817D0EE
:1008C0000FDCA0F12005142D24D2DFE805F035233C
:1008D0002323235623233B3D384E234B2351111111
:1008E0001111642832D009DCA0F13505042D11D88E
:1008F000304B03EB400030F8603C1DE0B02839D0AD
:1009000004DC6D2825D06E2804D125E0B52826D03A
:10091000FF2835D0274DA0F14106343D1A2E03D2D1
:1009200005EB400333F8823CA0F161061A2E03D296
:1009300005EB400030F8C23C012924D025E04AF202
:10094000DD03F9E72823F7E71123F5E74FF47343B5
:10095000F2E74BF21023EFE742F21023ECE746F206
:100960008403E9E74FF42043E6E74AF21403E3E7A0
:10097000C023E1E74FF46C43DEE74FF43343DBE79A
:100980004FF6DD73D8E743F00203012A01D143F0AB
:10099000200309490C2000BF23FA00F202F00F02E5
:1009A00041F82420001F641CE4B2C0B2042CF3D32D
:1009B00070BD000094410008E40100200148006D72
:1009C00001F03CB83400002030B590F844500124C8
:1009D000AC40056C6C60046863608368102B03682E
:1009E00003D099600068C26030BD9A600068C16041
:1009F00030BD7047012001F037B9022001F034B951
:100A0000042001F031B9082001F02EB9202001F0B6
:100A10002BB90020FFF732FFFEE7704770477047A1
:100A200070477047F0B590F854200026012A11D085
:100A3000012580F854500268936813F00C0F0BD016
:100A4000816D41F0200181650126002180F854105C
:100A50003046F0BD0220F0BD0F68D368012F0ED0E4
:100A6000C3F3C103032B0B694FF0040C3CD0D468D3
:100A7000C4F3C10464420CEB4404E34035E0484C49
:100A80004FF0F845234095FAA5F58C68B5FA85F541
:100A9000AC4023434C682343D36002680B8AD4687C
:100AA000D568C4F3C1046400A3404C69C5F3C10513
:100AB0006D00AC40156A44EA034305F0F0251D4380
:100AC0001562036880221A60C968012901684A68B2
:100AD00007D022F080024A60816D21F48031816567
:100AE000B3E742F08002F6E79B00D468C4F3C10488
:100AF000032C4C690AD0D2F80CE0CEF3C10ECEF133
:100B0000000E0CEB4E0C24FA0CF400E0A400022FB3
:100B10004F6809D02FB352F8A47F91F808C005FAA6
:100B20000CF52F43176021E047B152F8A07F91F8F0
:100B300008C005FA0CF52F43176004E052F8A05FD7
:100B40006FF3120515600268556A44EA034305F025
:100B5000FF251D435562836D4FF4807223F40033EB
:100B600011E052F8A45F6FF3120515600268956AF0
:100B700044EA034305F0FF251D439562836D4FF45E
:100B8000007223F48023836504682260C968012908
:100B900001684B6802D093434B6056E71343FBE771
:100BA000FFFF3F822DE9F8470026009690F8542079
:100BB000B246012A21D04FF0010980F85490046810
:100BC000A26852077DD44A681F254FF4F863052AAE
:100BD00016D2276B93FAA3FCBCFA8CFC02FB0CFC2C
:100BE00005FA0CF5AF4393FAA3F3B3FA83F30D6858
:100BF0005A4395402F43276344E0022000F012BA85
:100C00000A2A14D2676B93FAA3FCBCFA8CFC521F1D
:100C100002FB0CFC05FA0CF5AF4393FAA3F3B3FA0D
:100C200083F30D685A4395402F4367632AE00F2AE8
:100C300014D2A76B93FAA3FCBCFA8CFC0A3A02FB11
:100C40000CFC05FA0CF5AF4393FAA3F3B3FA83F364
:100C50000D685A4395402F43A76313E0E76B93FA5F
:100C6000A3FCBCFA8CFC0F3A02FB0CFC05FA0CF559
:100C7000AF4393FAA3F3B3FA83F30D685A43954055
:100C80002F43E7630568AA684FF0070412F00C0FC2
:100C90004FF038027ED10B680A2B1BD3AF6992FA52
:100CA000A2FCBCFA8CFC0A3B03FB0CFC92FAA2F8F7
:100CB00004FA0CFCB8FA88F827EA0C0703FB08F3DF
:100CC00000E06CE1D1F808C00CFA03FC47EA0C071D
:100CD000AF6117E06F6992FAA2FCBCFA8CFC03FBCF
:100CE0000CFC04FA0CFC27EA0C0792FAA2F8B8FAFA
:100CF00088F8D1F808C003FB08F30CFA03FC47EAB4
:100D00000C076F6103684F69DD68D1F81080C5F387
:100D1000C1056D00AF40DFF8F0C24FF0F845B8F103
:100D2000010F53D0B8F1020F64D0B8F1030F77D0A0
:100D3000B8F1040F73D01F6E95FAA5F807F0F84CC0
:100D40000F68B8FA88F807FA08F7BC4503D11F6E98
:100D500027F000471F6603685F6E95FAA5F807F055
:100D6000F84C0F68B8FA88F807FA08F7BC4503D1C1
:100D70005F6E27F000475F6603689F6E95FAA5F8DF
:100D800007F0F84C0F68B8FA88F807FA08F7BC457E
:100D900005D100E013E09F6E27F000479F660368CF
:100DA000DF6E95FAA5F507F0F84C0F68B5FA85F5F2
:100DB000AF40BC4503D1DD6E25F00045DD6603681C
:100DC0009D6805F00305012D54D150E0D3F86080F3
:100DD00095FAA5F508EA0C08D1F800C0B5FA85F532
:100DE0000CFA05FC4CEA070C48EA0C0848F00045F0
:100DF0001D66E4E7D3F8648095FAA5F508EA0C08C7
:100E0000D1F800C0B5FA85F50CFA05FC4CEA070CE0
:100E100048EA0C0848F000455D66D0E700E013E0C2
:100E2000D3F8688095FAA5F508EA0C08D1F800C057
:100E3000B5FA85F50CFA05FC4CEA070C48EA0C08F3
:100E400048F000459D66BAE7D3F86C8095FAA5F5A1
:100E500008EA0C08D1F800C0B5FA85F50CFA05FCD3
:100E60004CEA070C48EA0C0848F00045A6E71D6864
:100E7000ED0747D1CD68B5F1804F07D053F8B04F9B
:100E80000D7809FA05F294431C6034E053F8B07F02
:100E900091F800C009FA0CF52F431F600B68056834
:100EA000092B14D3AF6992FAA2FCBCFA8CFC093B63
:100EB00003FB0CFC04FA0CF4A74392FAA2F2B2FA78
:100EC00082F28C6853439C402743AF6113E06F6903
:100ED00092FAA2FCBCFA8CFC5B1C03FB0CFC04FA2F
:100EE0000CF4A74392FAA2F2B2FA82F28C6853434E
:100EF0009C4027436F610C68444B112C03D0122C8B
:100F000004D034B150E09968090204E09968C9013D
:100F100001E099684902002946DB0268916801F006
:100F20000301012902D11168C90738D138498A4221
:100F300012D1D1F8085105F00305012D03D1D1F8E4
:100F40000051ED072BD1D1F8085205F00305012D12
:100F50002ED1D1F8005220E02E4DAA428D6805F026
:100F600003050DD1012D02D10D68ED0717D1D1F880
:100F7000085205F00305012D07D1D1F8005202E017
:100F8000012D02D10D68ED0709D1D1F8085105F006
:100F90000305012D0CD1D1F80051ED0708D0816D6A
:100FA00041F020018165012680F854A0304625E6F5
:100FB000194D112C0AD0122C1ED0002CF4D18A42CB
:100FC000F2D1996841F480019960EDE78A4201D03D
:100FD000AA42E9D1996841F4000199600F49104A89
:100FE0000968B1FBF2F1C1EB0111C90000E0491E33
:100FF00000910029FBD1D7E78A4201D0AA42D3D180
:10100000996841F08071DFE700F0FF0300030450AE
:101010000000045000010450000204503000002081
:1010200080841E0018BCBDE8E0870020FFF734BCB8
:101030007047000010B504007ED0A06D40F00200A3
:10104000A0656C212046FFF731FA2068C16841F4A1
:101050000011C1602046FFF7C5FA206841686FF3B0
:101060000A014160216840F2FF70086020688168D1
:1010700021F0A04181602068816841F000518160C9
:101080002068C1685D4A1140C1602068C16841F0B4
:101090000041C160206801696FF30A0101612068A5
:1010A000416901F0404141612068816901F0784166
:1010B00081612068016A01F0F02101622068416AC3
:1010C00001F0FF2141622068816A01F0FF21816205
:1010D0002068016B4A4A114001632068426B48490D
:1010E00010390A4042632068826B0A40826320689C
:1010F000C16B40F2DF729143C16321680A6E4148BF
:1011000002400A6621684A6E02404A6621688A6E79
:1011100002408A662168CA6E0240CA66206850F89A
:10112000A01F6FF312010160206850F8A41F6FF335
:1011300012010160206800E011E050F8B01F6FF369
:1011400012010160206850F8B41F21F07F11016086
:101150002168886800F00300012805D101E0012022
:1011600010BD0868C0073ED12748814212D1D0F88F
:10117000081101F00301012903D1D0F80011C907BA
:1011800031D1D0F8081201F00301012925D1D0F89E
:10119000001220E01D4A9142816801F003010DD147
:1011A000012902D10168C9071DD1D0F8081201F048
:1011B0000301012907D1D0F8001202E0012902D170
:1011C0000168C9070FD1D0F8081101F00301012906
:1011D00003D1D0F80011C90705D1D0F808130C4A83
:1011E0001140C0F80813204600F092FA0020E06594
:1011F00020666066A06584F8540010BD04800080FD
:10120000300882E000F0FF030000045000010450A9
:10121000E01000FE704700002DE9F0410446006830
:1012200006684568B0070ED5A8070CD5A06DC006A6
:1012300003D4A06D40F40060A0652046FFF7EDFBED
:101240002168022008609C4FDFF87082700701D58A
:10125000680703D430074BD5280749D5A06DC006D1
:1012600003D4A06D40F40070A0652168C86810F434
:10127000406F37D1404681422AD0B94228D0D0F8B9
:101280000823D20624D0D0F8082302F01F02052A32
:101290001ED0D0F8082302F01F02092A18D0C06817
:1012A00080041FD4086800071CD58868400711D443
:1012B000486820F00C004860A06D20F48070A065A4
:1012C000A06DC0040ED4A06D40F00100A06509E03F
:1012D000C868E5E7A06D40F01000A065E06D40F043
:1012E0000100E0652046FFF7A0FE21680C200860A1
:1012F000B00601D5A80603D470066BD5680669D57B
:10130000A06DC00603D4A06D40F40050A065206815
:101310000168490658D5414688422DD0B8422BD0A5
:10132000D1F80823D20627D0D1F8082302F01F02F3
:10133000062A21D0D1F8082302F01F02072A1BD069
:10134000D8F80C20884219D0B84217D0D1F8083309
:10135000DB0613D0D1F8083303F01F03052B0DD0A3
:10136000D1F8083303F01F03092B07D0C968C36CF9
:1013700013F0C00F04D027E0C268E3E7C168F6E7C6
:10138000920221D44E4A8A4303D1C16811F4406FBE
:101390001AD0816809070FD4416821F060014160CB
:1013A000A06D20F48050A065A06DC0050CD4A06D88
:1013B00040F00100A06507E0A06D40F01000A065BE
:1013C000E06D40F00100E0652046FFF727FB216853
:1013D0006020086030060BD5280609D5A06D40F4C2
:1013E0008030A065204600F089F9216880200860DF
:1013F000F0050CD5E8050AD5A06D40F40030A065D5
:101400002046FFF70DFB21684FF480700860B0059F
:101410000CD5A8050AD5A06D40F48020A065204613
:10142000FFF7FFFA21684FF400700860F0062CD532
:10143000E8062AD5A06BD0B120684146884202D088
:10144000204A904210D1D1F80823D2060CD0D1F80E
:101450000803C0F38130022809D0D1F80803C0F393
:101460008130032803D00DE0C068C0070AD0A06D0A
:1014700040F48060A065E06D40F00200E065204629
:10148000FFF7C8FE216810200860700512D56805B6
:1014900010D5A06D40F48040A065E06D40F00800DC
:1014A000E06521684FF4806008602046BDE8F041A7
:1014B000FFF7B5BABDE8F081000204500000045007
:1014C0000020000200010450F8B54FF000050400B0
:1014D0002E46009502D0A06D10B107E00120F8BDA6
:1014E000204600F025F9E66584F85460206881689C
:1014F000890003D5816821F00051816020688168EE
:10150000C90010D4816841F08051816075487649E6
:101510000068B0FBF1F000EB8000400000E0401EEE
:1015200000900028FBD121688868C00008D4A06D15
:1015300040F01000A065E06D40F00100E06501257D
:10154000A06DC0067ED4886840077BD4A06D40F0B3
:101550000200A065654A886800F00300012802D1F6
:101560000868C0073ED16248814212D1D0F8081104
:1015700001F00301012903D1D0F80011C90731D1CD
:10158000D0F8081201F00301012925D1D0F800029A
:1015900020E0584B9942816801F003010DD10129E7
:1015A00002D10168C9071DD1D0F8081201F003016A
:1015B000012907D1D0F8001202E0012902D1016807
:1015C000C9070FD1D0F8081101F00301012903D197
:1015D000D0F80001C00705D19068616820F47C1044
:1015E00008439060E168A06B4FF40053084393FAFE
:1015F000A3F3E269B3FA83F3A1689A401143084365
:101600004FF4803292FAA2F2616AB2FA82F201FADF
:1016100002F21043012909D14FF46022A16A92FA23
:10162000A2F2B2FA82F2491E91400843E16A01290E
:1016300003D0226B0AB1114308432268D1682E4BB4
:10164000194000E047E00143D1602168886810F04C
:101650000C0F1DD14FF4804292FAA2F2A069B2FAA7
:1016600082F29040022393FAA3F3626BB3FA83F3FE
:101670009A401043CA6844F202039A430243CA6084
:10168000E06B01280CD02068016921F001010161A3
:10169000206901282068016B21F00F0110D012E0B1
:1016A000D4E910100143D4E9120210430143206829
:1016B000026940F2FD739A43114341F00101E6E7EC
:1016C000226A521E11430163A06D20F0020040F017
:1016D0000100A06504E0A06D40F01000A0650125A8
:1016E0002846F8BD3000002080841E00000304500E
:1016F000000004500001045007C0F0FF10B50020A6
:10170000FFF7CAF801490120087010BD0000002051
:101710000648C16A41F40051C162C16A21F4005116
:10172000C162C16C21F40051C164704700100240D5
:1017300070B52B49064686B051F84C0F40F4005066
:1017400041F80409486800F400500590086C40F026
:1017500040500864086840F002000860086800F023
:1017600002000590486840F0010048604868002584
:1017700000F0010005900B200190062000906946C2
:1017800002954FF0904000F07BFA174C1548C4E9E1
:1017900000058020A560C4E90350800060618000DE
:1017A000A0612020E061C0012062204600F000F925
:1017B000204600F097F93465002201213A20A66204
:1017C00000F0B4FC3A2000F0A6FC002211461220E2
:1017D00000F0ACFC122000F09EFC06B070BD0000D2
:1017E0000010024030040240600100202DE9F04763
:1017F0000446006889469046816849076DD494F88C
:10180000541001291BD00121354D002784F85410B4
:10181000A84202D03349884214D1D5F80803C00643
:1018200010D0D5F8080300F01F0005280AD0D5F81D
:10183000080300F01F00092804D0012607E0022059
:10184000BDE8F0872046FEF7FFFE060002D084F8D0
:10185000547043E0A06DC00404D5E06D20F0060094
:10186000E06500E0E765A06D40F60161884340F463
:101870008070A0652068A84206D01B49884203D02A
:10188000D5F80803C00603D1A06D20F48010A06530
:10189000216D1648C862216D15480863216D1548F1
:1018A000486321681C2008602068416841F01001ED
:1018B00041602068C16841F00101C1602168434670
:1018C0004A464031206D00F06DF984F8547020686C
:1018D000816841F00401816000E002263046AFE7F4
:1018E0000000045000010450000204506905000883
:1018F000DB050008C105000870B5044690F85400E7
:10190000012809D0012084F854006C212046FEF7FC
:10191000CDFD050002D024E0022070BD2068C16822
:1019200021F00101C160206D00F020F8051E03D0F8
:10193000A06D40F01000A0652068416821F0100102
:101940004160204604D1FEF74DFE050003D008E0BB
:10195000FEF748FE05E0A06D20F4885040F001003D
:10196000A065002084F85400284670BD10B590F89A
:1019700025200021022A03D00421C163012115E0A2
:101980000268136823F00E0313600268136823F0E3
:101990000103136090F84430046C012202FA03F34F
:1019A000636080F82520002280F82420084610BDBE
:1019B00030B5A8B101680A6822F001020A60016826
:1019C00000230B601A4D026814241A49AA4209D256
:1019D000194D2A44B2FBF4F29200C0E910120BE058
:1019E000012030BD124D6D422A44B2FBF4F2920048
:1019F00042640F4A083A026490F844400122A2402F
:101A0000046C6260046C0F228C4202D151F8A84F22
:101A100002E00749A0310C6890F84450AA40944372
:101A20000C60C36380F8253080F82430002030BD7E
:101A30000804024000000240F8FFFDBFF0B4016C52
:101A40000D6801680C68466C042202FA06F32B420A
:101A50000FD063070DD50B689B0603D40B6823F0EA
:101A600004030B6090F844108A40016C4A60016BDB
:101A70001BE0022303FA06F72F424FF0000C4FF051
:101A8000010216D0A70714D50C68A40605D40C686B
:101A900024F00A040C6080F8252090F844108B4054
:101AA000016C4B6080F824C0C16A002918D0F0BCDA
:101AB00008470823B3402B4212D0230710D50B68E8
:101AC00023F00E030B6090F84410036C02FA01F14E
:101AD0005960C26380F8252080F824C0416BE4E798
:101AE000F0BC704770B570B12B4D036814242B4ABD
:101AF0008168AB4209D22A4D1D44B5FBF4F4A40021
:101B0000C0E910240BE0012070BD234D6D421D443F
:101B1000B5FBF4F4A40044641F4C083C04640224A4
:101B200080F825401C6843F6F075AC43C56829432E
:101B3000D0E904563543294385692943C5692943BA
:101B4000056A2943214319608168B1F5804F15D09A
:101B5000036C0F21934202D152F8A83F02E00E4AD3
:101B6000A032136890F84440A1408B43136090F872
:101B70004430416899401368194311600021C162E3
:101B8000016341638163C163012280F8252080F8ED
:101B90002410084670BD0000080402400000024006
:101BA000F8FFFDBF70B5044690F824000025012819
:101BB0000CD0012084F8240094F825600020012E28
:101BC00006D084F824000225284670BD022070BD8E
:101BD000022684F82560E0632068066826F0010686
:101BE00006602046FEF7F0FE206B002820680168A2
:101BF00002D041F00E0106E021F0040101602068EE
:101C0000016841F00A0101602068016841F00101AA
:101C10000160D9E770B5044600F020F90546601C64
:101C200000D0641C00F01AF9401BA042FAD370BD2A
:101C300010B540F6B83404280ED003DC01280BD1CF
:101C400006A002E0082807D106A0FEF793FD204673
:101C5000BDE81040FFF7DEBF10BD000053454C4506
:101C60004354000055500000044910B50A68024270
:101C700002D00860FFF7DCFF10BD00001404014033
:101C80002DE9F84FDFF898B100234FF0010C4FF029
:101C9000030A4FF00F090BF1040EB9E00CFA03F43C
:101CA000224070D04D68022D01D0122D0ED1DD08DA
:101CB00000EB8508D8F820505E07F70E09FA07F602
:101CC000B5430E69BE402E43C8F8206007685E0029
:101CD00091F804800AFA06F508F00308AF4308FA01
:101CE00006F848EA0708C0F800804F68012F05D0C1
:101CF000022F03D0112F01D0122F13D1D0F808805A
:101D0000CF6828EA0508B74047EA08078760D0F897
:101D100004800F7928EA0408C7F300179F4047EAB8
:101D200008074760D1F804806FEA0807BF0706D1AB
:101D3000C76AA743C8F3C0049C403C43C462C4685C
:101D4000AC438D68B5402543C5604C68E4005ED562
:101D5000344C256E45F001052566246E23F00305FD
:101D600004F001040094304C2E19B4689D072F0F25
:101D700009FA07F5AC43B0F1904F05D02B4DA842BE
:101D800004D101251CE042E0002519E0284DA842BD
:101D900001D1022514E0274DA84201D103250FE00F
:101DA000254DA84201D104250AE0244DA84201D1C5
:101DB000052505E0224DA84201D1062500E00725B2
:101DC000BD402543B560DBF800405D464E68944356
:101DD000F60300D514432C60DEF8004075464E68CB
:101DE0009443B60300D514432C600D4D08352C6880
:101DF0004E689443F60200D514432C60084D0C3510
:101E00002C684E689443B60200D514432C605B1CCA
:101E10000A6832FA03F57FF441AF00F013B800000E
:101E2000000401400010024000000140000400488E
:101E300000080048000C004800100048001400484A
:101E40000018004818BCBDE8E08F42694A40426172
:101E500070470AB18161704781627047014800682C
:101E6000704700002C00002002480168491C0160F6
:101E7000704700002C00002010B5032000F076F918
:101E80000F2000F005F800F045F9002010BD00001B
:101E900010B5044607484FF47A710068B0FBF1F0C2
:101EA00000F006FF00222146501E00F03FF90020FE
:101EB00010BD0000300000202DE9F041044690F8EC
:101EC0003500012806D094F83500022802D0012000
:101ED000BDE8F08194F8340001280CD0012084F88A
:101EE0003400022784F83570FFF7B8FF06464FF438
:101EF0007A7800250CE00220EAE700BFFFF7AEFF8A
:101F0000801B404504D9A76384F834500320DFE7E1
:101F100020688068C0434007F0D500205FF01401BE
:101F2000226801EB8003D550401C0F28F8D92046C9
:101F300000F081F80020CBE72DE9F04104004FF0DC
:101F4000000504D094F83500002618B107E0012000
:101F5000BDE8F08184F83460204600F06BF8022080
:101F600084F835002068016821F001010160142027
:101F7000216800EB85028E506D1C0F2DF8D920686A
:101F8000816841F004018160D4E901010843D4E98A
:101F90000A1211430843E1690843216A0843A16911
:101FA0000843616A084321684A68214B1A4010437C
:101FB0004860204601F0D6F8D4E903100143226BB3
:101FC0006069104301432068026822F0FE02114359
:101FD00001602068016841F001010160FFF73EFFE8
:101FE00005464FF47A7706E0FFF738FF401BB8420A
:101FF00001D908200EE020688068C043C007F3D1F3
:10200000FFF72CFF054608E0FFF728FF401BB8420A
:1020100003D91020A06303209AE720688068C0439A
:10202000C006F1D4A663012084F8350000208FE7B4
:102030000E0000FC70472DE9F0410446082021689D
:10204000C8602068816841F004018160FFF706FFE5
:10205000054600264FF47A770BE0FFF7FFFE401BA2
:10206000B84206D90420A06384F834600320BDE898
:10207000F08120688068C0430007EED4012084F816
:10208000350084F834600020F1E700002DE9F047C6
:10209000044690F835009A4690468946012806D0B5
:1020A00094F83500022802D00120BDE8F08794F8AA
:1020B0003500012822D194F8340001280BD00120EA
:1020C00084F83400022684F83560FFF7C7FE054621
:1020D0004FF47A770DE00220E7E700BFFFF7BEFE7E
:1020E000401BB84205D9A663002084F834000320C1
:1020F000DBE720688068C0434007EFD514222168E1
:1021000002EB89000A5802EA080242EA0A020A506F
:102110000020CAE7704700F01F02012191404009EA
:10212000800000F1E020C0F800117047F0B40E4BC1
:102130001B680C46C3F30223C3F10705042D00D925
:102140000425191D072901D2002300E0DB1E01260A
:1021500006FA05F1491E214099409E40761E164020
:102160003143F0BC01F018B80CED00E0064900F076
:10217000070208684FF6FF03184040EA0220034AAE
:1021800010430860704700000CED00E00000FA0505
:102190001549B0F5007F0868C0F3412009D0022836
:1021A00005D0086820F4C06040F48060086000201A
:1021B00070470128FBD0086820F4C06040F400702C
:1021C00008600A480A4A0068B0FBF2F03222504325
:1021D00000E0401E10B14A695205FAD44869400532
:1021E000E5D503207047000000700040300000205B
:1021F00040420F000248006800F4C06070470000D1
:10220000007000402DE9F84F044600270088E54D96
:102210003E46010504F1200B1DD5606E78B1B0F586
:10222000800F11D0B0F5000F04D0B0F5400F22D0D0
:1022300001270FE0E86840F48030E8601BE00021EF
:10224000201D00F0BBFF03E00021584601F06AF8B2
:10225000070010D03E462088C00426D5A06EC0B12D
:10226000B0F1807F1AD0B0F1007F0DD0B0F1407F87
:1022700019D0012718E0D5F88800616E20F44000DD
:102280000843C5F88800E6E7E86840F48030E86075
:1022900009E00021201D00F091FF03E000215846D5
:1022A00001F040F80746F7B13E46206880033AD572
:1022B000A86D4FF00008C00009D4A86D40F0805010
:1022C000A865A86D4FF0010800F080500090DFF87D
:1022D000D8A2DAF8001041F48071CAF80010FFF7B4
:1022E000BDFD814610E0D5F88800A16E20F0407059
:1022F0000843C5F88800D8E7FFF7B0FDA0EB090058
:10230000022801D9032705E0DAF80000C005F3D55B
:10231000002F7CD04FEA0706B8F1000F03D0A86D5C
:1023200020F08050A8652078C00707D0D5F8880035
:10233000A16B20F003000843C5F8880020788007CF
:1023400007D5D5F88800E16B20F00C000843C5F8EC
:1023500088002078400707D5D5F88800216C20F048
:1023600030000843C5F888002078000707D5D5F865
:102370008800616C20F0C0000843C5F88800207810
:10238000C00607D5D5F88800A16C20F4407008433A
:10239000C5F888002078800607D5D5F88800E16C5C
:1023A00020F440600843C5F888002088800507D5E0
:1023B000D5F88800E16D20F440200843C5F8880076
:1023C0002088400507D5D5F88800216E20F44010FC
:1023D0000843C5F888002078400607D5D5F888005E
:1023E000216D20F440500843C5F88800207800068D
:1023F00007D5D5F88800616D20F440400843C5F842
:1024000088002088C00509D5D5F8880000E01CE0C8
:10241000A16D20F440300843C5F8880020884FF0B3
:10242000006780044FF080684FD5D5F88800E16ED2
:1024300020F040600843C5F88800E06EB8423CD107
:10244000E86840F48010E8603FE0D5F8900010F4B0
:10245000407015D0D4F88410814211D0D5F8900086
:10246000D5F8901020F4407041F48031C5F89010F8
:10247000D5F8901021F48031C5F89010C5F890007F
:10248000C00710D0FFF7EAFC074641F2883906E0A2
:10249000FFF7E4FCC11B494501D903263CE7D5F809
:1024A00090008007F4D5D5F89000D4F8841020F47B
:1024B00040700843C5F890002EE7404505D1012142
:1024C000201D00F07BFE00B106462068000317D5F2
:1024D000D5F88800216F20F040600843C5F88800D7
:1024E000206FB84204D1E86840F48010E86007E04B
:1024F000404505D10121201D00F060FE00B10646D7
:102500002068400317D5D5F88800616F20F040603F
:102510000843C5F88800606FB84204D1E86840F409
:102520008010E86007E0404505D10121201D00F042
:1025300045FE00B10646208840041AD5D5F888002B
:10254000A16F20F040500843C5F88800A06FB0F19B
:10255000805F03D0B0F1005F05D00AE00221201DAA
:1025600000F02CFE03E00221584600F0DBFE00B133
:1025700006462088000407D5D5F88800E16F20F0D2
:1025800080400843C5F888002068C00307D555F887
:10259000880FD4F8801020F00040084328603046AF
:1025A00000F004B8001002400070004018BCBDE804
:1025B000E08F00002DE9F047DFF8688105460E4600
:1025C000D8F8000000F00700B0420CD2D8F8001094
:1025D00021F007013143C8F80010D8F8000000F0DE
:1025E0000700B04274D128784F4C800705D5A06809
:1025F000A96820F0F0000843A0602878C00756D0F2
:102600006868022818D0032819D02168D0B149057C
:1026100000295DDAA16821F003010143A160FFF701
:102620001DFC6968074641F28830022912D003294F
:102630001ED0814649B335E021688903E8E7216867
:102640008901E5E78907E3E7FFF708FCC11B494576
:1026500001D924E08146A068C0F381000228F3D1AB
:1026600025E000BFFFF7FAFBC11B494501D916E081
:102670008146A068C0F381000328F3D117E000BFB2
:10268000FFF7ECFBC11B494509D8A06810F00C0FFF
:10269000F6D10CE0FFF7E2FBC11B494502D903204C
:1026A000BDE8F087A068C0F381000128F2D1D8F816
:1026B0000010404601F00701B1420BD9016821F03A
:1026C000070131430160006800F00700B04201D00B
:1026D0000120E5E72878400705D5A068E96820F4DF
:1026E000E0600843A0602878000706D5A068296943
:1026F00020F4605040EAC100A06000F01BF8A1681F
:10270000F02292FAA2F201F0F001B2FA82F2D14084
:10271000064A515CC840064908600F20FFF7B8FB25
:102720000020BDE70020024000100240BC4100082C
:102730003000002070B53B49002318468A683A4CA7
:1027400012F00C0F4FEA640514D08A68C2F38102BC
:10275000032A04D1CA6802F00302012A0AD08A6857
:10276000C2F38102012A21D08A68C2F38102022ABF
:102770001ED01EE00A68120706D4D1F894204FF448
:10278000706302F4706203E00A68F02302F0F00262
:1027900093FAA3F3B3FA83F3DA40244B53F82230CD
:1027A0008A6812F00C0F04D1184602E0204600E0BF
:1027B00028468A68C2F38102032A31D1C868CA68F0
:1027C00000F00300702696FAA6F602F07002B6FA40
:1027D00086F6F240521C4FF4FE46022804D003282D
:1027E00005D0B3FBF2F004E0B4FBF2F001E0B5FB7E
:1027F000F2F0CA6896FAA6F302F4FE42B3FA83F343
:10280000DA40C96850434FF0C06292FAA2F201F078
:10281000C061B2FA82F2D140491C4900B0FBF1F02C
:1028200070BD0000001002400024F400CC410008FC
:102830002DE9F84304460078FE4DC00663D5A8682C
:1028400010F00C0F0AD0A0690028286878D040F05A
:1028500001002860FFF702FB06465AE0286880075F
:1028600002D5A06900286AD0216A28684FF0F006D6
:10287000000703D5286800F0F00003E0D5F89400C5
:1028800006EA1010814216D9084600F0E9FD00283A
:1028900055D1286840F0080028602868216A20F097
:1028A000F000084328606868E16920F47F4040EA4E
:1028B0000120686015E0286840F00800286028685A
:1028C000216A20F0F000084328606868E16920F47C
:1028D0007F4040EA01206860206A00F0C1FD0028C6
:1028E000D6D1FFF727FFA96896FAA6F201F0F0010A
:1028F000B2FA82F2D140D04A515CC840CF49086058
:102900000F20FFF7C5FA2BE0FFF7A8FA801B02287B
:102910007ED828688007F7D5286840F0080028602E
:102920002868216A20F0F000084328606868E1699F
:1029300020F47F4040EA0120686011E000E0B7E049
:1029400020F001002860FFF789FA064605E000BF85
:10295000FFF784FA801B0228DAD828688007F7D4AA
:102960002078C00748D0A868C0F3810002281DD095
:10297000A868C0F38100032803D1E868C04380073A
:1029800014D06068B0F5803F17D0B0F5A02F28684C
:1029900017D020F480302860286820F48020286038
:1029A0006068E0B1FFF75AFA064614E02868800331
:1029B00022D5606800287BD01EE0286840F4803073
:1029C000EDE740F480202860F7E700BFFFF746FA04
:1029D000801B64289CD828688003F7D50CE0FFF79B
:1029E0003DFA064605E000BFFFF738FA801B642871
:1029F0008ED828688003F7D42078800748D5A86847
:102A00004FF0F857C0F38100012816D0A86800E005
:102A1000AFE0C0F38100032804D1E86800F00300B0
:102A200002280AD0E0680028286821D040F480708D
:102A30002860FFF713FA06460BE0286840050BD51F
:102A4000E0680028B7D007E0FFF708FA801B0228EB
:102A5000C0D828684005F7D5686897FAA7F22169B9
:102A6000B2FA82F220F0F8509140084368600FE01B
:102A700020F480702860FFF7F1F9064605E000BFFA
:102A8000FFF7ECF9801B022873D828684005F7D4BB
:102A90002078000729D560690028D5F8940013D064
:102AA00040F00100C5F89400FFF7D8F9064606E0AB
:102AB000FBE000BFFFF7D2F9801B022859D8D5F8F8
:102AC00094008007F6D510E020F00100C5F89400CE
:102AD000FFF7C4F9064604E0FFF7C0F9801B02289F
:102AE00047D8D5F894008007F6D42078400763D5FE
:102AF000A86D0026C00008D4A86D40F08050A865DD
:102B0000A86D012600F0805000904D480168C9056D
:102B100011D40168804641F480710160FFF79EF98D
:102B2000074604E0FFF79AF9C01B022821D8D8F81D
:102B30000000C005F6D5A068012815D00528D5F8F5
:102B4000900017D020F00100C5F89000D5F8900053
:102B500020F00400C5F89000A06841F28838C8B1A0
:102B6000FFF77CF9074610E0D5F8900040F001002F
:102B7000F0E75EE040F00400C5F89000F4E700BF25
:102B8000FFF76CF9C11B414553D8D5F89000800779
:102B9000F6D50CE0FFF762F9074604E0FFF75EF9AF
:102BA000C11B414579D8D5F890008007F6D41EB1F5
:102BB000A86D20F08050A865A06AC8B3A968C1F3C9
:102BC0008101032972D00228286820F080702860D3
:102BD00011D02868000106D42868800003D4E86872
:102BE00020F00300E860E86816490840E860FFF755
:102BF00035F9044654E0FFF731F9064605E000BF19
:102C0000FFF72CF9801B022847D828688001F7D4E9
:102C1000206BE16A000110380843616BA26B090266
:102C2000120941EA42410843A18F074A49080DE0D1
:102C300039E032E000100240BC41000830000020C2
:102C400000700040FFFFEEFE0000E0FF02EB41518C
:102C5000084394F840104908120102EB416108430F
:102C6000E860286840F080702860E86840F0807074
:102C7000E860FFF7F3F8044605E000BFFFF7EEF861
:102C8000001B022809D828688001F7D50BE000BF97
:102C9000FFF7E4F8001B022802D90320BDE8F883FF
:102CA00028688001F4D40020F8E7FFE70120F5E769
:102CB00010B5401EB0F1807F01D3012010BD4FF050
:102CC000E02460610F21601700F066FA0020A06127
:102CD00007202061002010BD70477047704770B515
:102CE0000446006801694FF00005C943890715D4FF
:102CF000C168C943890711D4E91E0161012020760A
:102D0000206880698007204602D0FFF7E7FF04E0D3
:102D100000F098F8204600F06BF9257620680169EC
:102D2000C943490717D4C168C943490713D46FF091
:102D300004010161022020762068806910F4407F40
:102D4000204602D0FFF7CAFF04E000F07BF82046DF
:102D500000F04EF9257620680169C943090716D4A9
:102D6000C168C943090712D46FF00801016104204A
:102D700020762068C0698007204602D0FFF7AEFFAA
:102D800004E000F05FF8204600F032F92576206874
:102D90000169C943C90617D4C168C943C90613D418
:102DA0006FF010010161082020762068C06910F4DE
:102DB000407F204602D0FFF791FF04E000F042F888
:102DC000204600F015F9257620680169C943C90736
:102DD00008D1C168C943C90704D1891E01612046D1
:102DE00000F038F920680169C943090609D4C168AF
:102DF000C943090605D46FF0800101612046FFF741
:102E00006BFF20680169C943490609D4C168C943F9
:102E1000490605D46FF040010161204600F01BF91E
:102E200020680169C94389060BD4C168C943890672
:102E300007D46FF0200101612046BDE87040FFF724
:102E40004CBF70BD704770B5044690F838000D4611
:102E500001280ED0012684F83860022084F8390059
:102E60000C2A45D007DC5AB1042A1BD0082A78D195
:102E70002CE0022070BD102A4ED0142A71D15DE0E2
:102E8000206800F04DFC2068816941F008018161F3
:102E90002068816921F004018161206881692A69C3
:102EA000114311E0206800F089FC2068816941F439
:102EB000006181612068816921F4806181612068FD
:102EC00081692A6941EA022181614AE0206800F0B3
:102ED000BDFC2068C16941F00801C1612068C16979
:102EE00021F00401C1612068C1692A69114311E020
:102EF000206800F0F3FC2068C16941F40061C16101
:102F00002068C16921F48061C1612068C1692A69B2
:102F100041EA0221C16124E0206800F019FD206827
:102F2000416D41F0080141652068416D21F00401C7
:102F300041652068416D2A69114311E0206800F065
:102F40003FFD2068416D41F4006141652068416D9D
:102F500021F4806141652068416D2A6941EA0221BE
:102F6000416584F83960002084F8380070BD10B5E0
:102F7000040003D094F8390010B107E0012010BD1F
:102F8000002084F83800204600F00CF8022084F875
:102F90003900211D206800F05BFB012084F8390016
:102FA000002010BD104800B5816D87B041F00401CC
:102FB0008165816D01F004010591C16C41F0020150
:102FC000C164C06C012100F0020005904020009017
:102FD0000220CDE901010321CDE903106946034830
:102FE000FEF74EFE07B000BD00100240000400488E
:102FF0000068002141620846FDF74EBC10B504464A
:103000000068012200F080FB0D48216881420BD04E
:103010000C48814208D00C48814205D00B488142BF
:1030200002D00B48814203D1486C40F40040486410
:103030002068016841F001010160002010BD00001E
:10304000002C014000340140004001400044014098
:103050000048014070477047FEE7000030B5B9B046
:10306000142122A8FDF7B3F8442127A8FDF7AFF8F3
:1030700088216846FDF7ABF8364CA06D40F08050D3
:10308000A065A06D002500F0805038900420319597
:1030900027900120299027A8FFF7CAFB00B1FEE77F
:1030A0004FF400300090401221906846FFF7AAF8D4
:1030B000E06C40F00100E064E06C00F0010038904A
:1030C000E06C40F00200E064E06C00F00200389038
:1030D000E06C40F00400E064E06C00F00400389024
:1030E000E06C40F00800E064E06C22A900F0080009
:1030F000389048F2C07022900220CDE923050320C9
:1031000025900B2026904FF09040FEF7B9FD4FF22E
:103110003320229022A91048FEF7B2FD4FF4FC7034
:10312000229022A90D48FEF7ABFD4FF47F4022907C
:1031300022A90B48FEF7A4FD0220FEF76BFDA06D4F
:1031400040F40070A065A06D00F40070389039B0B4
:1031500030BD000000100240000400480008004894
:10316000000C004870B50446FEF778FE05464FF4A3
:103170007A7608E0FEF772FE401BB04203D90120C8
:10318000A063032070BD20688068C0438006F1D42E
:10319000002070BDFEE770470907090E002806DA17
:1031A00000F00F0000F1E02080F8141D704700F1DE
:1031B000E02080F800147047704700002DE9F041CE
:1031C000544C05460F46E0680026820728684FF0F9
:1031D000700112D0E26802F0030282421BD1D0B12A
:1031E000E06891FAA1F100F07000B1FA81F1C840F5
:1031F0006968401C88420ED122E0012804D00228D0
:1032000005D0032807D108E02268920701E0226870
:103210005205002A07DB012678E02268920302D4D7
:1032200022685203F5E7E26891FAA1F122F07303F4
:103230006A68B1FA81F1521E8A4013430343E36086
:10324000206820F080602060FEF708FE804605E0E0
:10325000FEF704FEA0EB080002284ED8206800010B
:10326000F6D44FF4FE4017B390FAA0F0A968012FEE
:10327000B0FA80F04FF0FF3201FA00F12AD068690D
:1032800002EB50004FF0C06292FAA2F2B2FA82F260
:10329000904001432069204A104001432161206889
:1032A00040F080602060FEF7D9FD074627E090FAE5
:1032B000A0F0A968B0FA80F08140E8684FF40032CD
:1032C00092FAA2F20009B2FA82F290400143206918
:1032D000124AE1E7286902EB50004FF4C00292FA6B
:1032E000A2F2B2FA82F29040014320690C4AD3E77D
:1032F000FEF7B4FDC01B022801D9032606E02068B2
:103300000001F5D52069A969084320613046BDE870
:10331000F081000000100240FF80FFF9FF80FDFFF8
:10332000FF809FFF2DE9F0414A4C06468846E06841
:103330000025810730684FF0700312D0E16801F07A
:10334000030181421BD1D0B1E06893FAA3F100F0F0
:103350007000B1FA81F1C8407168401C88420ED1FA
:1033600022E0012804D0022805D0032807D108E074
:103370002168890701E021684905002907DB01254B
:1033800064E02168890302D421684903F5E7E16814
:1033900093FAA3F321F073027168B3FA83F3491E21
:1033A00099400A430243E260206820F08050206088
:1033B000FEF754FD074604E0FEF750FDC01B02284F
:1033C0003BD820688000F7D44FF4FE4191FAA1F178
:1033D000B068B8F1000FB1FA81F100FA01F019D02C
:1033E00031694FF0FF3202EB51014FF0C06292FAA7
:1033F000A2F2B2FA82F2914008436169164A114082
:1034000008436061206840F080502060FEF726FD90
:10341000074614E0F1684FF4003292FAA2F209096B
:10342000B2FA82F29140084361690C4AE7E700BFB3
:10343000FEF714FDC01B022801D9032506E0206811
:103440008000F5D560697169084360612846BDE870
:10345000F081000000100240FF80FFF9FF80FDFFB7
:10346000F8B51C4D06460024A86DC00002D5FEF735
:10347000C1FE0DE0A86D40F08050A865A86D00F079
:1034800080500090FEF7B6FEA96D21F08051A9652D
:10349000B0F5007F04D0802E07D94FF003040AE076
:1034A000802E08D9A02E01D804E001D1022402E028
:1034B000702E00D101240848016821F00701214342
:1034C0000160006800F00700A04201D00120F8BDB3
:1034D0000020F8BD00100240002002407047FEF7B7
:1034E000C3BC000010B598B0142111A8FCF76FFE02
:1034F00044216846FCF76BFE1020009001206021FB
:1035000000240690CDE907410221CDE90A100C9074
:1035100028200D9007200E900420CDE90F01684669
:10352000FFF786F900B1FEE70F2011900320CDE9E7
:1035300012041494042111A81594FFF73BF800B16C
:10354000FEE70A4CA06D40F08050A065A06D00F031
:10355000805016902015FEF71BFE00B1FEE7A06D0F
:1035600020F08050A06518B010BD0000001002408F
:103570000D48016841F4700101600C48016841F098
:1035800001010160002181600268094B1A4002605C
:103590008214C260026822F48022026081610249C2
:1035A000C00380390860704788ED00E000100240D9
:1035B000FFFFF6EA0148FFF792BB0000240100205C
:1035C0000D4810B5006842F21071B0FBF1F0401EDA
:1035D00082B20A480A4B42800A480360C160002157
:1035E0000161C0E901214161FFF7C1FC002801D060
:1035F000FDF70FFA10BD0000300000200000002091
:1036000000080040CC0000200148FFF768BB000024
:10361000CC0000200D4810B56021016000218160C0
:103620000161C160416140F2325141603C38FFF7B5
:103630009EFC06490022A1F13C00FFF704FC034870
:103640000021BDE810403C38FFF7D8BC080100203D
:103650002DE9F0470268244B244D254E254F264C7A
:103660004FF0804A984209D0504507D0A84205D073
:10367000B04203D0B84201D0A04204D122F0700C75
:103680004A6842EA0C02DFF874C0DFF87480DFF8A1
:10369000749098420FD050450DD0A8420BD0B04244
:1036A00009D0B84207D0A04205D0604503D04045BC
:1036B00001D0484503D122F44075CA682A4302600C
:1036C0008A68C2620A688262984207D0A04205D026
:1036D000604503D0404501D0484501D109690163E7
:1036E00001214161BDE8F087002C01400004004049
:1036F00000080040000C0040003401400040014040
:10370000004401400048014010B50123046A8B4089
:103710009C430462036A8A401343036210BD0000A5
:103720002DE9F043026A22F001020262056A436851
:1037300082691C4C25F0020522400C6822F003022D
:1037400014438A68194E2A43174D194FDFF864C095
:10375000DFF86490A84207D0B04205D0B84203D049
:10376000604501D0484506D122F00808CA6842EAFF
:10377000080222F00402A84207D0B04205D0B842A5
:1037800003D0604501D0484505D14D6923F440730D
:103790001D438B692B434360846149684163026226
:1037A000BDE8F0838FFFFEFF002C01400034014094
:1037B000004001400044014000480140F0B5026A69
:1037C00022F010020262056A42688369194C1B4E9E
:1037D00023400C6823F4407343EA042425F02003BB
:1037E0008D6843EA0513144DA84201D0B04206D1BA
:1037F000CF6823F0800343EA071323F04003A84275
:103800000AD0B04208D00E4DA84205D00D4DA842B6
:1038100002D00D4DA84207D14D6922F4406242EA20
:1038200085028D6942EA850242608461496881634C
:103830000362F0BDFF8FFFFE002C01400034014009
:10384000004001400044014000480140F0B5026AD8
:1038500022F480720262056A4368C269194C1B4EE9
:1038600022400C6822F00302144325F400728D6894
:1038700042EA0522144DA84201D0B04206D1CF68D9
:1038800022F4006242EA072222F48062A8420AD0AF
:10389000B04208D00E4DA84205D00E4DA84202D02D
:1038A0000D4DA84207D14D6923F4405343EA051357
:1038B0008D6943EA05134360C4614968C1630262CC
:1038C000F0BD00008FFFFEFF002C014000340140DE
:1038D00000400140004401400048014030B5026A08
:1038E00022F480520262046A4268C369124D24F4D1
:1038F00000542B400D6823F4407343EA05238D6880
:1039000044EA05340D4DA8420BD00D4DA84208D015
:103910000C4DA84205D00C4DA84202D00B4DA84238
:1039200004D14D6922F4804242EA85124260C361AB
:1039300049680164046230BDFF8FFFFE002C014026
:103940000034014000400140004401400048014073
:1039500030B5026A22F480320262046A4268436D22
:10396000114D2B400D681D4324F400330C8943EAAC
:1039700004430E4CA0420BD00D4CA04208D00D4C7D
:10398000A04205D00C4CA04202D00C4CA04204D165
:103990004C6922F4803242EA04224260456549685B
:1039A0008165036230BD00008FFFFEFF002C0140E7
:1039B0000034014000400140004401400048014003
:1039C00030B5026A22F480120262046A4268436DD2
:1039D000114D24F400142B400D6843EA05230D8992
:1039E00044EA05540D4DA8420BD00D4DA84208D015
:1039F0000C4DA84205D00C4DA84202D00B4DA84258
:103A000004D14D6922F4802242EA85224260436556
:103A10004968C165046230BDFF8FFFFE002C014084
:103A20000034014000400140004401400048014092
:103A3000FEE700000B4810B501214FF44002C0E939
:103A400000120622C0E902214FF4617101610021D8
:103A5000416101468038FCF7E5FF002801D0FCF702
:103A6000D8FF10BDB40000202DE9F0411D46FCF741
:103A700021FFFE4C062D7DD2DFE805F0034FA3F6B3
:103A8000F4F32078FA4DC107C90E00F0020241EAB2
:103A9000825100F0040241EA025300F0080003439F
:103AA000F2482A4600213C38FEF7F0FA2079C10797
:103AB000C90E00F0020241EA825100F0040241EA1C
:103AC000025300F008000343E8482A4602213C382C
:103AD000FEF7DCFA207AC107C90E00F0020241EAC3
:103AE000825100F0040241EA025300F0080003434F
:103AF000DE482A4604213C38FEF7C8FA207BC1077D
:103B0000C90E00F0020241EA825100F0040241EACB
:103B1000025300F00800034350E02078D54DC10760
:103B2000490E00F0020241EA023100F0040241EACB
:103B3000822100F0080041EA8003CC482A46002197
:103B40003C38FEF7A3FA2079C107490E00F00202C3
:103B500041EA023100F0040241EA822100F008004B
:103B600041EA8003C1482A4602213C38FEF78EFA1A
:103B7000207A00E0A3E1C107490E00F0020241EA09
:103B8000023100F0040241EA822100F0080041EA1B
:103B90008003B6482A4604213C38FEF777FA207B9A
:103BA000C107490E00F0020241EA023100F00402AE
:103BB00041EA822100F0080041EA80032A460621FA
:103BC0001DE12078AC4DC107090C00F0020241EA6A
:103BD000027100F0040241EA826100F0080041EA4B
:103BE000C023A2482A4600213C38FEF74FFA20792C
:103BF000C107090C00F0020241EA027100F0040260
:103C000041EA826100F0080041EAC02397482A4651
:103C100002213C38FEF73AFA207AC107090C00F07D
:103C2000020241EA027100F0040241EA826100F0FE
:103C3000080041EAC0238D482A4604213C38FEF79B
:103C400025FA207BC107090C00F0020241EA02714B
:103C500000F0040241EA826100F0080041EAC0235A
:103C6000ACE7D2E05FE0FFE720786FF04045C107A6
:103C700000F0080041EAC0637C482A4600213C3835
:103C8000FEF704FA2078AE0000F00203C0F38000D3
:103C900003437648324601213C38FEF7F7F9207994
:103CA0002A46C10700F0080041EAC0636F480221BC
:103CB0003C38FEF7EBF92079324600F00203C0F3FE
:103CC00080000343694803213C38FEF7DFF9207A7E
:103CD0002A46C10700F0080041EAC0636348042196
:103CE0003C38FEF7D3F9207A324600F00203C0F3E5
:103CF000800003435D4805213C38FEF7C7F9207B6F
:103D00002A46C10700F0080041EAC063574806216F
:103D10003C38FEF7BBF9207B324600F00203C0F3CB
:103D2000800003436AE020786FF0407600F00201E3
:103D3000090600F0040041EA80534C483246002155
:103D40003C38FEF7A3F92068042505EA500100F08D
:103D5000010041EAC0034548B7153A4601213C3805
:103D6000FEF794F92079324600F00201090600F0CE
:103D7000040041EA80533D4802213C38FEF786F9B1
:103D800060683A4605EA500100F0010041EAC003CC
:103D9000364803213C38FEF779F9207A324600F0A4
:103DA0000201090600F0040041EA80532F48042173
:103DB0003C38FEF76BF9A0683A4605EA500100F07E
:103DC000010041EAC003294805213C38FEF75EF9AD
:103DD000207B324600F00201090600F0040041EAAF
:103DE0008053224806213C38FEF750F9E0683A46F5
:103DF00005EA500100F0010041EAC0030721BDE8D7
:103E0000F0411A483C38FEF741B920781B4DC107F4
:103E1000890B00F0020241EAC21100F0040241EAFB
:103E2000C21100F0080041EAC05310482A460021A0
:103E30003C38FEF72BF92079C107890B00F002020C
:103E400041EAC21100F0040241EAC21100F0080088
:103E500041EAC05305482A4602213C38FEF716F9CC
:103E6000207AC107890B00F0020209E0E40100207A
:103E7000E7FF3FFF9FCFFFFFFF3FFFCFFFFCFDFBB3
:103E800041EAC21100F0040241EAC21100F0080048
:103E900041EAC0532A4604210A48FEF7F7F8207B7E
:103EA000C107890B00F0020241EAC21100F00402CE
:103EB00041EAC21100F0080041EAC0537EE6BDE8C5
:103EC000F0810000A80100200FB4084B10B504A930
:103ED00002AA039800F01CF8044602A9002000F092
:103EE000C4F8204610BC5DF814FB00006B400008CD
:103EF00002E008C8121F08C1002AFAD170477047B3
:103F0000002001E001C1121F002AFBD17047000010
:103F10002DE9FF4F89B09B460446002506E0252881
:103F20000BD05A460B999047641C6D1C20780028D2
:103F3000F5D10DB0284600F095B80027B84601220B
:103F4000474900E0074314F8013F203B02FA03F021
:103F50000842F7D120782E2819D114F8010F47F024
:103F600004072A280ED06FF02F022078A0F130012C
:103F700009290CD808EB880102EB410100EB01088C
:103F8000641CF2E70A98641C50F8048B0A902078AD
:103F90000028CED0642808D0692806D075281ED005
:103FA0005A460B9990476D1C58E00A994FF00A0940
:103FB00001C90A91002802DA40422D2102E03905A8
:103FC00004D52B218DF82010012103E0F90704D03E
:103FD0002021F7E78A4608AE0DE00021FAE70A99AA
:103FE0004FF00A0901C90A91F7E74946FCF776F94B
:103FF000303106F8011D0028F7D1ADEB060000F1C5
:104000002009780701D44FF00108C84502DDA8EB6C
:10401000090000E000208046002706E008A85A4674
:10402000C05D0B9990476D1C7F1C5745F6DB04E083
:1040300030205A460B9990476D1CB8F10001A8F149
:104040000108F5DC05E016F8010B5A460B9990477C
:104050006D1CB9F10001A9F10109F4DC641C65E7EC
:104060000928010030BCBDE8C08F0A68531C0B60F2
:10407000107070472DED028B82B0FDF7FDFEFFF74B
:1040800031FA0020FDF704FF0020FCF7B1FB01200E
:10409000FCF7AEFBFCF786FB28A0FCF76BFB0120CE
:1040A000FCF706FBFCF7C6F9FFF7C4FCFFF788FA3C
:1040B000FFF7B0FA4FF47A779FED228B4FF4FA684E
:1040C0000025224CFCF750FB21A0FCF753FB1F49B5
:1040D0000422091D2048FDF789FB1F48FDF70CFC51
:1040E0000120FCF7D9FB3846FDF794FDFCF73CFBBB
:1040F0000095019560680646FCF7E3F853EC182B31
:10410000FCF770F8C4E90201324614A16846FFF7D3
:10411000DBFE6846FCF72EFB0120FCF7BDFB4046AA
:10412000FDF778FD207800284FF0000003D0FCF761
:10413000A5FB2570C6E7FCF793FBC3E74C4142346F
:10414000000000000000000000003E4000000020D1
:10415000434845434B000000340000202564000024
:1041600000FE1467001D1447009D009C003F00FAEC
:104170001400005341980019485A095A005F00FC86
:10418000015F01FC00AF1404005BC018815AC90034
:104190005800C005005F004200F5006700EA00AF6C
:1041A00000BF004600FF00EF0400000106070817EB
:1041B00009000100020004002000080000000000C7
:1041C000000000000102030406070809A0860100A0
:1041D000400D0300801A060000350C0040420F001D
:1041E00080841E0000093D0000127A000024F400C3
:1041F00000366E010048E801006CDC021C42000839
:104200000000002034000000F03E0008504200088A
:1042100034000020C4050000003F0008000000003A
:104220000000000000000000000000000004004842
:10423000001000480000004800000048000000484E
:1042400000000048000000480000000000093D0098
:040000050800019D51
:00000001FF
